:020000040002F8
:1060000080640020C1630200C9630200CB63020008
:10601000CD630200CF630200D163020000000000E4
:10602000000000000000000000000000D363020038
:10603000D563020000000000D7630200D9630200AC
:10604000C96A0200DB6302005D7002005D6C020041
:10605000B16C0200DB630200256A0200DB63020010
:10606000DB630200DB630200DB630200DB63020030
:10607000DB630200DB630200DB630200DB63020020
:10608000DB630200216B0200DB630200DB630200C2
:10609000DB630200DB630200C16C0200DB63020011
:1060A000DB630200DB630200DB630200DB630200F0
:1060B000DB630200DB630200000000000000000060
:1060C000DB630200DB630200DB630200DB630200D0
:1060D000DB630200DB630200DB6302000000000000
:1060E00000000000000000000000000000000000B0
:1060F00000000000000000000000000000000000A0
:10610000000000000000000000000000000000008F
:10611000000000000000000000000000000000007F
:10612000000000000000000000000000000000006F
:10613000000000000000000000000000000000005F
:10614000000000000000000000000000000000004F
:10615000000000000000000000000000000000003F
:10616000000000000000000000000000000000002F
:10617000000000000000000000000000000000001F
:10618000000000000000000000000000000000000F
:1061900000000000000000000000000000000000FF
:1061A00000000000000000000000000000000000EF
:1061B00000000000000000000000000000000000DF
:1061C00000000000000000000000000000000000CF
:1061D00000000000000000000000000000000000BF
:1061E00000000000000000000000000000000000AF
:1061F000000000000000000000000000000000009F
:10620000DFF80CD000F058FB004800471DA3020047
:106210008064002030B450E8012F93B2C489234435
:106220008489A34228BF1B1B0489A34202BFBFF37A
:106230002F8F002007E0C3EA020340E80134002C5E
:10624000E9D14FF001000A6030BC704750E8012FDF
:10625000C2EA024240E801210029F7D1704730B478
:1062600050E8022F1FFAA2F3C488A34202BFBFF373
:106270002F8F00200DE0C48923448489A34228BFC6
:106280001B1BC2EA034340E80234002CE8D14FF064
:1062900001000A6030BC704750E8022FC2EA224277
:1062A00040E802210029F7D17047034653E8022F46
:1062B000D988B2EB324F4FF0000017BF92B241EADB
:1062C000014142EA014104E05A68B2EB324F08BF93
:1062D000012043E80212002AE8D1704730B4044696
:1062E00054E8000F0D4644E80053002BF8D1156028
:1062F00030BC704730B4044654E8000F40EA010552
:1063000044E80053002BF7D1156030BC704730B41F
:10631000044654E8000F00EA010544E80053002B4E
:10632000F7D1156030BC704730B4044654E8000F14
:1063300080EA010544E80053002BF7D1156030BC1A
:10634000704730B4044654E8000F00EB010544E800
:106350000053002BF7D1156030BC704730B40446B1
:1063600054E8000FA0EB010544E80053002BF7D1DF
:10637000156030BC704770B404464FF0000054E81C
:10638000006F0D68AE4207BF44E80023012044E8D7
:1063900000630E60002B1CBF0020F0E770BC70474C
:1063A00030B4044654E8000F88422CBF451A054615
:1063B00044E80053002BF5D1156030BC7047000055
:1063C0000648804706480047FEE7FEE7FEE7FEE78F
:1063D000FEE7FEE7FEE7FEE7FEE7FEE7C56C02002C
:1063E000016202002DE9F05F0546002092469B46BF
:1063F00088460646814640241BE0284641464746DB
:10640000224600F090F853465A46C01A914110D3E4
:1064100011461846224600F016F82D1A67EB0108BF
:106420004F4622460120002100F00DF817EB00092D
:106430004E41201EA4F10104DFDC484631462A46C5
:106440004346BDE8F09F202A04DB203A00FA02F11F
:10645000002070479140C2F1200320FA03F3194352
:1064600090407047004870473CF3020040EA010347
:106470009B0703D009E008C9121F08C0042AFAD2FA
:1064800003E011F8013B00F8013B521EF9D27047BE
:10649000D2B201E000F8012B491EFBD27047002266
:1064A000F6E710B513460A4604461946FFF7F0FF13
:1064B000204610BD421C10F8011B0029FBD1801A98
:1064C0007047034611F8012B00F8012B002AF9D17F
:1064D0001846704700F0004230F000400AD0C10D6D
:1064E00001F56071C0F3160042EA0151C20840078D
:1064F0001143704700200146704730B50B460146F6
:1065000000202022012409E021FA02F59D4205D352
:1065100003FA02F5491B04FA02F52844151EA2F1FC
:106520000102F1DC30BD202A04DB203A21FA02F01E
:106530000021704721FA02F3D040C2F120029140BD
:106540000843194670472DE9FE4F804681EA030053
:10655000C00F0C46009021F0004123F00045B8EB3D
:106560000200A94105D24046214690461C460B46F2
:10657000024623F00040104347D0270DC7F30A001E
:10658000C3F30A510290401A019040286BDAC3F31A
:10659000130040F4801B0098924620B10023D2EBF8
:1065A000030A63EB0B0B01985946C0F140025046B9
:1065B000FFF749FF06460D4650465946019A00F03E
:1065C0008DF910EB08006141002487EA115284EA3A
:1065D000E7731A4340D0009A62B3019A012A4FEA46
:1065E000075215DC001B61EB02014FF0004202EA8A
:1065F0000752CDE90042001C41F5801132462B467E
:1066000000F08DF903B0BDE8F08F40462146F9E770
:10661000001B61EB0201001C41F5801300185B4177
:106620002018A2F5001747EB030140EAD570B61910
:106630006D4111E06D084FEA360645EAC0754FEA34
:106640000752001B61EB0201001C41F58011490853
:106650004FEA30000019514132462B4603B0BDE8E5
:10666000F04F00F04DB90098012240000023D0EB1C
:10667000020263EBE073009821464FEAE074B8EB46
:10668000000061EB0401E9E783F000435BE781F080
:10669000004158E72DE9FE4F81EA030404F000446D
:1066A00021F0004100944FF0000B23F0004350EA2A
:1066B00001045ED052EA03045BD0C3F30A54C1F371
:1066C0000A552C44A4F2F3340194A0FB0254C1F304
:1066D000130141F48011C3F3130343F4801301FB4E
:1066E000024400FB034E840A970A44EA815447EAB5
:1066F0008357A4FB076802958D0A05FB07854FEABF
:10670000932C04FB0C542705029D4FEA065847EAD8
:106710001637B5EB08056EEB070C870E920E47EAAD
:10672000811742EA8312A7FB0201B6EB0B0164EB6F
:1067300000042B0D43EA0C335E1844EB1C50DA4680
:106740005146E7FB0201C5F313044FEA0B3343EA5A
:1067500014534FEA0432019C43EA0603A4F10C04EB
:106760000294009CCDE900B400F0D9F803B0BDE874
:10677000F08F00200146F9E72DE9F04D81EA03048E
:1067800004F0004B21F0004514464FF0000A23F0BE
:10679000004150EA050220D054EA01021DD0C5F3A1
:1067A0000A570246C5F31303C1F31300C1F30A5697
:1067B00040F4801543F48013A7EB0608101BD6465F
:1067C00008F2FD3873EB050002D308F1010801E07F
:1067D00092185B41B8F1000F03DA00200146BDE8D2
:1067E000F08D00204FF48011064684460EE0171B02
:1067F00073EB050705D3121B63EB050306434CEA55
:10680000010C49084FEA300092185B4150EA010739
:10681000EDD152EA030012D082EA040083EA0501B6
:10682000084305D0101BAB4106D20122002306E02D
:1068300000224FF0004302E06FF0010253101AEB08
:1068400006004CEB085110EB0A0041EB0B01BDE8D0
:10685000F04D00F055B8C1F30A52C1F3130140F2F4
:10686000FF3341F480119A4202DA0020014670475A
:1068700040F233439A42A2F2334202DC5242FFF723
:1068800052BEFFF7E0BD000030B5041E71F10004F8
:1068900004DB4FF00044404264EB0101141E73F12D
:1068A000000405DB1C464FF00043524263EB040337
:1068B000994208BF904230BD064C074D06E0E068A3
:1068C00040F0010394E8070098471034AC42F6D337
:1068D000FFF79AFCC0FA0200E0FA0200202A06DB69
:1068E000CB17203A41FA02F043EAE07306E041FA9E
:1068F00002F3D040C2F1200291400843194670478C
:1069000010B5141E73F1000408DA401C41F10001B7
:1069100092185B411A4301D120F0010010BD2DE90E
:10692000F04D92469B4611B1B1FA81F202E0B0FA05
:1069300080F220329046FFF786FD04460F4640EA7B
:106940000A0041EA0B0153465A46084313D0114648
:1069500053EA010019D0C8F140025046FFF7E3FDA9
:1069600005460E46504659464246FFF76CFD084321
:1069700005D0012004E020463946BDE8F08D002016
:10698000054346EAE0762C4337430A986305E40A58
:10699000A0EB08000022FD0A44EA47540A3002D561
:1069A00000200146E9E7010510196941DDE90845C4
:1069B00000196941BDE8F04DA2E770B58C1810F8D8
:1069C000015B15F0070301D110F8013B2A1106D134
:1069D00010F8012B03E010F8016B01F8016B5B1E4E
:1069E000F9D12B0705D40023521E0DD401F8013B29
:1069F000FAE710F8013BCB1A921C03E013F8015B95
:106A000001F8015B521EF9D5A142D8D3002070BD18
:106A100000F00F01000900EB800001EB4000C0B264
:106A2000704700002DE9F8430025DFF894804FF40B
:106A3000807601242F460095304604F035FC38B1AD
:106A4000D8F80403204203D0304604F023FC254349
:106A5000361D64007F1CB6B2082FEDD34FF4BE7410
:106A6000204604F021FC48B1204604F013FC45F018
:106A700000456A460121002004F0C0FB15F0FF0F1D
:106A800016D0012600242E420ED008EB8401D1F846
:106A90001005D1F81015C0F304200A4AC1F30141D2
:106AA00052F8242002B190477600641C082CEAD3E7
:106AB000002D02DA684606F09FFABDE8F883000070
:106AC00000600040803A002070B54FF48076304678
:106AD00004F0DCF8114CB50560B1304604F0DDF887
:106AE0000120C5F80803607920B901206071216890
:106AF000002088474FF48276304604F0C7F800281B
:106B00000AD0304604F0C9F80220C5F8080321680D
:106B1000BDE870400120084770BD0000A82B002090
:106B200002490248091F0968006808471C2C002018
:106B30001FB51349481ECDE90001431E821EC11E28
:106B4000001F06F031FB0E490120891FC8714878EB
:106B50008C794B790A798DE81D000A480A4A8B78AE
:106B6000801AC008032202EB0040CA7807A104F093
:106B7000F7FD00BF04F068FC0028FBD11FBD00003A
:106B8000E62A002060FB0200F0FA020025643A25A4
:106B9000643A25642025642F25642F323025640053
:106BA0002DE9FC4791460AAA984692E8F0000E4A61
:106BB0009170507006F0AEFF2B4622464146484683
:106BC000CDE9006706F01AFD08480949401AC008D7
:106BD000032101EB004007A104F0A6FD04F034FC02
:106BE0000028FBD1BDE8FC87542B002060FB02008D
:106BF000F0FA0200525443206F6B2E0000F034BABA
:106C000070B50E46144900EB400001EBC005144678
:106C1000E86A183520B101280FD0022805D113E009
:106C2000284600F055FAA04201D2002411E0224685
:106C30003146284600F091FA0BE0284600F048FA69
:106C4000A042F4D20446F2E73146284600F058FA52
:106C50000446204670BD0000F4410020F8B51248FB
:106C6000124E04464FF48C7105F061F900281AD0D9
:106C70000025C4F81851D4F818010090F07F34466C
:106C8000FF2806D0A17F11B104F0CEFA01E004F094
:106C9000E8FA65772572D4E9002101B004F1080013
:106CA000BDE8F0401047F8BD00300040443B0020F4
:106CB00002494FF0402006F06DBF0000683B002005
:106CC00005F0AEB8F0B5D34AD3494FF080541368FD
:106CD000D4F830010978D4F83421451CC1F30311EC
:106CE00007D08446164601270025BCF1060F04D0C4
:106CF00013E003F0FF0C0E46F5E7032E05D0042E3B
:106D000003D0052E01D0062E07D1B4F82463DFF896
:106D10000CC3C6F30426CCF80060DEB2062E06D102
:106D2000032904D1DFF8FCC2BD4ECCF87460461CC8
:106D300006D084464FEA0206BCF1060F04D013E0E9
:106D400003F0FF0C0E46F7E7032E05D0042E03D008
:106D5000052E01D0062E07D1D4F84462DFF8C8C250
:106D6000C6F34236CCF80060DEB2062E08D1032905
:106D700006D1AE4ED6F800C02CF0807CC6F800C01C
:106D8000461C05D084461646BCF1060F04D014E01C
:106D900003F0FF0C0E46F7E7032E05D0042E03D0B8
:106DA000052E01D0062E08D14FF08046C6F80C51B2
:106DB000C6F810519C4E361F3560DEB2062E08D143
:106DC000032906D1DFF860C203260CF1640CCCF86D
:106DD0000060DEB2062E11D103290FD1DFF850C2B8
:106DE0000526CCF80060924E78363760904E083613
:106DF00035600CF1040C3F26CCF80060461C05D031
:106E000084461646BCF1060F04D087E003F0FF0C61
:106E10000E46F7E7032E7CD0042E7FD0052E01D03E
:106E2000062E7BD1834E3668DFF80CC2CCF80060AA
:106E3000804E361D36680CF1040CCCF800607D4E97
:106E4000083636680CF1040CCCF80060794E0C362C
:106E500036680CF1040CCCF80060764E10363668BB
:106E60000CF1040CCCF80060724E143636680CF14C
:106E7000040CCCF800606F4E18363668DFF8B8C1E5
:106E80000CF1200CCCF800606A4E1C3636680CF110
:106E9000040CCCF80060674E203636680CF1040C08
:106EA000CCF80060634E243636680CF1040CCCF844
:106EB0000060604E283636680CF1040CCCF8006097
:106EC0005C4E2C3636680CF1040CCCF80060594E40
:106ED00030363668DFF860C10CF1400CCCF8006049
:106EE000544E343636680CF1040CCCF80060514E28
:106EF000383636680CF1040CCCF800604D4E3C3648
:106F000036680CF1040CCCF800604A4E4036366806
:106F100000E003E00CF1040CCCF80060461C05D046
:106F200084461646BCF1060F04D011E003F0FF0CB6
:106F30000E46F7E7032E05D0042E03D0052E01D010
:106F4000062E05D1D4F858423C4E04F04F0434606C
:106F5000441C04D003461146062B02D010E0DBB2DD
:106F6000FAE7032905D0042903D0052901D0062911
:106F700006D133490B68DB0702D06FF001030B60C9
:106F800006280CD1032A0AD0042A08D0052A06D0E4
:106F9000062A04D12B48016841F48061016023482E
:106FA0007438016841F470010160BFF34F8FBFF383
:106FB0006F8F4FF01021D1F80002002803DBD1F8C9
:106FC0000402002822DA204A176020480368002BB8
:106FD000FCD01523C1F800320468002CFCD0C1F8A5
:106FE000043201680029FCD0156001680029FCD03A
:106FF000BFF34F8F0D48F0380168154A01F4E06186
:1070000011430160BFF34F8F00BFFDE712491148E4
:107010000860F0BDE00F00F0E80F00F040350140DF
:107020000DF0ADBA00C007403C050040FCED00E0AB
:10703000105600400404001020C50040E40E00403B
:10704000000400403C17004004E5014000E401401A
:107050000400FA050090D003902C0020014800683D
:1070600000470000B02B002010B5124C0220206118
:10707000606111A0A06104F17800E0614FF400703C
:1070800020620020A06260620BA1A164E06204F5AE
:107090001E71E1641021A065C4E91410E06509A126
:1070A000E01DFFF70EFA08A12046FFF70AFA20209C
:1070B000A07110BDF44100205465726D696E616C61
:1070C0000000000052545400534547474552000009
:1070D0000269C1688A4203D88068401A104400E0FF
:1070E000501A401E7047002809DB00F01F020121E2
:1070F00091404009800000F1E020C0F88012704704
:107100002DE9F047C4681746894606464FF0000847
:107110003069A04201D9051B02E0B168201A0D1A9E
:10712000B0686D1E001BA84200D80546BD4200D3C2
:107130003D4670682A4620444946FFF797F9B068F3
:107140007F1B2C44A844A944A04200D10024F46031
:10715000002FDDD14046BDE8F0872DE9F04104461F
:107160008846D4E90207C51BE168606816460844F2
:10717000B54206D94146FFF779F9B819E060BDE894
:10718000F0812A464146FFF771F9761B08EB0501AD
:1071900032466068FFF76AF9E660F0E70FB4084B23
:1071A00010B504A902AA039800F0F0F8044602A959
:1071B000002000F0A5FC204610BC5DF814FB000088
:1071C000017B020002E008C8121F08C1002AFAD1A0
:1071D00070477047002001E001C1121F002AFBD157
:1071E000704700000121202803DA81400548014052
:1071F00003E0402802DA2038814009B101207047BD
:1072000000207047FC06FFBD2DE9FF5F82B0002122
:10721000DDE90430020DDDF840B0034318D044F638
:107220001050A2F2FF3242431514119801281FD0CA
:10723000A5EB0B00401C5FEA000A4FF000064E4F22
:10724000DFF83891B046504615D5CAF1000413E076
:10725000119801244AA3012801D16FEA0B01029879
:10726000119AC0E90031C0E9024206B0BDE8F09FC2
:10727000CBF10000DFE704460021404A491842EB09
:107280000450CDE9001012E0E00707D032463B463B
:1072900040464946FFF7FEF98046894632463B465E
:1072A00010461946FFF7F6F906460F466410002C03
:1072B000EAD1DDE90401DDE90023BAF1000F06DAC5
:1072C000FFF7E8F942464B46FFF7E4F905E0FFF720
:1072D00053FA42464B46FFF74FFA04460E46002249
:1072E000284BFFF7D1FA03D84FF0FF30014607E0F3
:1072F0000022254B20463146FFF725F9FFF7ABFA70
:10730000102409E0002C0ADB0A220023FFF76AF8A8
:10731000039B30321A55641E50EA0102F2D1641CFC
:10732000039AC4F111031444119A012A03D00122D3
:1073300008430DD10AE0084304D000204FF0110BA0
:10734000119072E7A3EB0B056D1E0DE05B4504DDAC
:107350004FF0000205F1010504E003DA4FF00002EE
:10736000A5F10105002AECD002981199C0E902317B
:10737000C0E9004579E70000000014400000F03F3C
:10738000300000000000F0430000E03F2DE9FF4F17
:1073900095B09B468946064600250FE2252877D101
:1073A00000242746F84A0121059400E0044316F81A
:1073B000013F203B01FA03F01042F7D130782A2830
:1073C00011D06FF02F033078A0F13002092A16D8BF
:1073D000059A44F0020402EB820203EB42021044DD
:1073E000761C0590EFE759F8042B0592002A03DA82
:1073F000504244F40054059044F00204761C307866
:107400002E2816D116F8010F44F004042A280DD0B6
:107410006FF02F023078A0F13003092B09D807EB69
:10742000870302EB4303C718761CF3E759F8047B84
:10743000761C30786C280FD006DC4C2817D06828D2
:107440000DD06A2814D104E0742810D07A280FD106
:107450000DE044F400140AE044F4801401E044F424
:1074600040147278824202D104F58014761C761C96
:10747000307866280BD013DC582877D009DC002838
:1074800075D04528F6D04628F4D047281AD19DE17A
:1074900018E0632835D0642879D0652812D195E1A9
:1074A000702873D008DC6728F1D069286FD06E2867
:1074B0000DD06F2806D1B5E073282CD0752875D073
:1074C000782874D05A46179990476D1C75E1C4F31B
:1074D0000250022809D003280DD0D9F80010042842
:1074E0000DD00D6009F1040967E1D9F80010EA1721
:1074F000C1E90052F6E7D9F800100D80F2E70D70EF
:10750000F0E719F8041B8DF8001000208DF8010039
:10751000EA46012003E059F804AB4FF0FF30610761
:107520004FF0000102D40DE008F101018846B94294
:107530000FDA8045F8DB1AF808100029F4D108E0CA
:1075400008F1010188468142FADB1AF80810002987
:10755000F6D105985B46A0EB080721463846179AF6
:1075600000F094FA284400EB080507E04DE029E11B
:107570000DE01AF8010B5A4617999047B8F1010827
:10758000F7D25B4621463846179A13E142E00A22B9
:107590000092C4F302524FF0000A022A08D059F8B0
:1075A00004CB032A4FEAEC710AD00DE029E02AE06F
:1075B00009F1070121F00702F2E802C1914609E052
:1075C0000FFA8CFC4FEAEC71042A03D14FFA8CFCC1
:1075D0004FEAEC71002907DA0A460021DCF1000CC1
:1075E00061EB02012D2202E0220504D52B228DF849
:1075F0000420012203E0E20701D02022F7E79046B1
:1076000059E00A2102E010220DE010214FF0000A9B
:1076100000910BE010224FF0000A44F00404082708
:10762000009203E008224FF0000A0092C4F30252D5
:10763000022A05D059F804CB0021032A08D009E01A
:1076400009F1070121F00702F2E802C1914605E0C5
:107650001FFA8CFC042A01D10CF0FF0C4FF000083B
:10766000220728D5702806D0009B83F0100353EA28
:107670000A0305D00EE040228DF80420012208E024
:107680005CEA010206D030228DF804208DF8050056
:1076900002229046009B83F0080353EA0A030AD1B2
:1076A0005CEA010201D1620705D530228DF8042081
:1076B0004FF001087F1E582804D034A003900EA874
:1076C00002900DE036A0F9E753466046009AFEF7B7
:1076D00089FE84460398825C0298401E02900270E4
:1076E0005CEA0100F0D1029806A9081A00F1200A0C
:1076F000600702D524F4803400E00127574502DDFD
:10770000A7EB0A0000E0002000EB0A0100900598BA
:107710004144401A0590E00306D45B462146179A7F
:10772000059800F0B3F90544002706E001A85A4681
:10773000C05D179990476D1C7F1C4745F6DBE00341
:107740000CD55B462146179A059800F09FF9054431
:1077500004E030205A46179990476D1C0099481E46
:1077600000900029F5DC08E0029802995A4600785A
:10777000491C0291179990476D1CBAF10001AAF1BA
:10778000010AF1DC65E100000928010030313233E3
:10779000343536373839616263646566000000004D
:1077A0003031323334353637383941424344454637
:1077B0000000000000F058F90544761C30780028DD
:1077C0007FF4ECAD19B02846BDE8F08F620700D415
:1077D000062709F1070222F0070CFCE80223E14624
:1077E00003F000485FEA080C02D00FF2702C0DE0A5
:1077F0005FEA045C02D50FF2682C07E05FEAC47C04
:1078000002D00FF2602C01E0AFF2700C4FF0FF38A5
:1078100023F00043CDF850C065280CD006DC452885
:1078200009D046281DD047283DD13DE0662818D014
:1078300067287ED138E00021112F01DB112000E004
:10784000781CCDE9000106A90EA8FFF7DDFCDDE9F3
:107850000F010E9A03910021009207F1010A049191
:107860004DE04FF000400097CDE9011006A90EA8A9
:10787000FFF7CAFCDDE90F0203920E9B119900226B
:10788000DDF80CA00093049211B9791C00EB010AF9
:10789000B7EB0A0004D4C0F1FF3007F1010A0490ED
:1078A000AAEB0700019044E0012F00DA0127002134
:1078B000112F01DD112000E03846CDE9000106A9B5
:1078C0000EA8FFF7A1FCDDE90F010E9A039100213C
:1078D00004910092BA4621070CD40399514500DA6D
:1078E0008A46BAF1010F05DD009AAAF10101515C47
:1078F000302908D0B84202DA10F1040F06DA01216B
:10790000CDE9011015E0AAF10101E9E7002805DC45
:10791000049901440491AAEB000102E0411C514585
:1079200000DD8A460499401A401C01904FF0004047
:107930000290200704D40198504501DBCDF8048063
:1079400000208DF84F0002980DF14F07B0F1004F65
:1079500025D02B200E9002984FF0020800280CDA58
:10796000404202902D200E9007E00A210298FEF777
:10797000C4FD3031029007F8011DB8F10001A8F1F3
:107980000108F2DC02980028EFD1791E0E980870E9
:10799000307800F0200040F0450007F8020D12A8F2
:1079A000C01B00F107081498007800B1012000EB1B
:1079B0000A01019801EBE07105984144401A401E0C
:1079C0000590E00306D45B462146179A059800F01F
:1079D0005DF805441498007818B15A4617999047F5
:1079E0006D1CE00324D55B462146179A059800F0EC
:1079F0004DF805441CE00498002807DBDDE903018D
:107A0000884203DD0098405C179901E01799302007
:107A10005A469047049805F10105401C04900198CE
:107A2000401E019004D12E205A46179990476D1C94
:107A3000BAF10001AAF1010ADDDC05E017F8010B3B
:107A40005A46179990476D1CB8F10001A8F101083A
:107A5000F4DC5B462146179A0598ABE62D00000042
:107A60002B000000200000002DE9F0410446002515
:107A70001E461746880404D405E039462020B04746
:107A80006D1C641EF9D52846BDE8F0812DE9F04152
:107A9000044600251E469046C80301D5302700E065
:107AA0002027880404D505E041463846B0476D1CC0
:107AB000641EF9D52846BDE8F081000070B50F4C72
:107AC00005460A28A16909D00246A06801F0DCFB3E
:107AD000607908B101F0ACFD284670BD0022A260BB
:107AE000E06980780844A06102F080F9E169897852
:107AF000401AA1698842EFD8A261EDE7202B00204F
:107B00000A68531C0B601070704790F8240001281D
:107B100001D01F207047EE20704710B501220221CE
:107B2000002001F06BF908B1072810D107220221CB
:107B3000012001F063F908B1072808D100210A22C9
:107B4000084601F05BF908B1072800D1002010BDFC
:107B500072B603F097FE00BF03F076FC0028FBD15D
:107B600011481249401AC408012000EB044010A13A
:107B700003F0DAFD11480068C00700D000BE022003
:107B800000EB04400EA103F0CFFDBFF34F8F0B4875
:107B9000E43801680E4A01F4E06111430160BFF36B
:107BA0004F8F00BFFDE7000060FB0200F0FA02000B
:107BB000466174616C206572726F7200F0ED00E0D6
:107BC00053797374656D20726573657400000000ED
:107BD0000400FA050EB500210091CDE901106A46B6
:107BE00044F20100FFF7B4FF0EBD10B58268C36810
:107BF000934203D002F021F8002010BD052010BDF3
:107C000029B112B1531E134203D0092070470E2030
:107C100070470160838000218160C1600846704721
:107C200010B58268C3689A1A83889A4203D802F012
:107C30000EF8002010BD042010BD00002DE9F84F03
:107C4000254C8146924660880E46814241D80027E5
:107C50004FF6FF788DF80070684600F069F92278D9
:107C60006078A188884201DA401C00E00020C0B2A0
:107C7000904204D19DF8000000F07EF927E065787D
:107C80006078884201DA401C00E0002060709DF8B6
:107C9000000000F071F9454519D0A068B9F1000F56
:107CA00040F835A00DD066B16188E068324605FB2A
:107CB00001004946FEF7DAFBA06800EBC5008680AC
:107CC00002E000EBC50087800020BDE8F88F0420AB
:107CD000FBE70920F9E70000C82B002010B50E4C87
:107CE00003E0401C00E00020207020786178814291
:107CF00010D022786188E068A36802FB010003EBE2
:107D0000C20153F83220898890472078A1888842A0
:107D1000E9DAE6E710BD0000C82B002030B5CB0043
:107D200008339DB293074FF0000401D0072030BD07
:107D3000044B9A602A44DA605C701C705880998009
:107D4000002030BDC82B0020014801F064BE0000B7
:107D5000E02B00203AB100680129426100D00021E7
:107D600001610020704707207047000038B51148B6
:107D700008235822416800910F49006802F067FD0E
:107D8000002815D10D4A69460D4801F049FE04004E
:107D90000ED101210A4801F0BEFE0123094A19460D
:107DA000074801F010FE06490120083908702046F6
:107DB00038BD000030F00200AC3B002041D2020090
:107DC000E02B0020FFFF7F0070B50446007F0D46CA
:107DD00008B1002070BDA26101F0A2FF401941F17D
:107DE0000001C4E90201206900B125612146BDE816
:107DF0007040002005F012BE0146002008770120E7
:107E000005F00CBE70B50A4E01460A48B578FFF77A
:107E1000ECFE04464DB10020B070711C0122C81D5B
:107E200003F022F808B1FFF7D5FE204670BD000030
:107E3000FC2B0020043C0020F0B5244E89B01F46E6
:107E40000D00044672603FD0A888296882B220489D
:107E5000FFF7D6FE002835D1A889A96882B21C4850
:107E60001030FFF7CDFE00282CD12022194968469A
:107E7000FEF7FCFA60690690207C00B101208DF8C5
:107E800014008DF81C70607C00B10E208DF8150078
:107E9000E0680290A06803902068019060680090FC
:107EA0000A480D4A6946083002F0AAFF002809D1A5
:107EB000B0702068401C05D004490122491CC81D2F
:107EC00002F0D2FF09B0F0BD0720FBE7FC2B002039
:107ED000043C002044F0020071E1020010B50146AC
:107EE0001048FFF79DFE040019D10F480F4A017892
:107EF000515C19B1001D04F06BFE02E00C3004F07F
:107F000041FD60B9084907480839FFF76EFE30B9EE
:107F1000054901220839044802F0B6FF044620460C
:107F200010BD0000143C0020042C00209C2B0020DD
:107F300030B5EFF3108172B60D4A9468012324B175
:107F40000370002900D162B630BD93604FF0E0238A
:107F5000D3F88051074C25401560C3F88041D3F811
:107F6000844154605A17C3F8842100220270E8E764
:107F7000243C0020FC06FFBD0B498A68002A11D072
:107F800000280FD1EFF3108072B60B684FF0E0229B
:107F9000C2F800314B68C2F8043100228A60002820
:107FA00000D162B670470000243C00202DE9F0416A
:107FB000064608680C46411C4FF0A0474FF00105EB
:107FC00006D005FA00F1C7F80815206803F0E6F8B6
:107FD0006068411C02D0002103F0C6F83168A06936
:107FE000C1F82405607D227D31681043C1F86C051D
:107FF000D4E900123068C0F81425C0F80C15207DB3
:10800000012815D1A068411C02D0002103F0ACF872
:10801000E068411C05D08540C7F80855E06803F0CA
:10802000BDF8D4E902123068C0F80825C0F8101570
:10803000BDE8F0812DE9F041064608680C46411C78
:108040004FF0A0474FF0010506D005FA00F1C7F840
:108050000815206803F0ACF86068411C02D00021CC
:1080600003F08BF83168A069C1F82405607D217D9B
:1080700032680843C2F86C05D4E900123068C0F8D1
:108080000C15C0F81425207D012815D1A068411CCD
:1080900002D0002103F071F8E068411C05D0854052
:1080A000C7F80855E06803F083F8D4E90212306895
:1080B000C0F80825C0F81015BDE8F08170B51500AE
:1080C000044609D00020286034B1206820B1A0798E
:1080D000800703D0072070BD0E2070BD084600F059
:1080E00005FBC0B2142804D02179814203D80420B2
:1080F00070BD052070BDE288216800FB0210286079
:10810000002070BD2DE9FC47002517880646158024
:1081100090F82D001446894630B13A46214648462B
:1081200000F0F8FA051E09D1B0784FF00C0A18B328
:108130002088C846001DB84202D95046BDE8FC87D9
:10814000684679DF0028F9D12088032108F800105B
:1081500020881921401C80B2208008F80010208857
:10816000401C80B2208000EB0801BDF8000006F042
:10817000A0F9218808442080F0780222C8B1218823
:1081800096F9033001F1030C4846BC45D5D842545A
:1081900021884FF0010C491C89B2218000F801C0F0
:1081A0002188491C89B2218009F801302088401CAF
:1081B00020807068B8B1218890F9003001F1030C7B
:1081C0004846BC45B9D8425421880A22491C89B284
:1081D000218042542188491C89B2218009F801304C
:1081E0002088401C2080308950B1CDE900474B46A3
:1081F0000622022106F1080006F00CFA051E9DD1A8
:10820000308A50B1CDE900474B460722032106F1E1
:10821000100006F0FFF9051E90D1308B50B1CDE96A
:1082200000474B461522142106F1180006F0F2F91A
:10823000051E83D1306A30B13B462246494601F0E3
:108240008CF9051EDBD1706A30B13B4622464946A7
:1082500002F020FA051ED2D196F82C0038B13B4628
:1082600022464946304605F085F9051EC7D13078CB
:1082700038B13B4622464946304602F095FA051E83
:10828000BDD128465AE718B504460020ADF80000D5
:1082900013466A46204600F006F8002802D0BDF8D2
:1082A0000000204418BD70B5E0B1DAB1002402E04E
:1082B000045D2C44A4B2651C8D4206D21688A642E9
:1082C000F6D8061976789E42F2D18C420AD2A31CC7
:1082D000005D9BB200B1401E0004000C02D01C18CF
:1082E0008C4201D9002070BD138070BD80F8301021
:1082F00070472DE9F0410D00044606D02CB195F8E9
:108300007A000026012803D006E00E20BDE8F081A7
:1083100095F89800012829D0D5F8A000042825D088
:10832000D5F89C00042821D04FF00108A6702C221B
:1083300005F17801201DFEF799F884F83060D5F832
:10834000A4006063D5F8A800A0634FF6FF70A4F8FE
:10835000240404F58260C4F82004C4F82664A4F858
:108360002A6484F82C64207810B104E00720CDE75B
:10837000FF2084F8540004F155072046C4F8107417
:10838000FFF7C3FBA4F8140404F21442394628464C
:10839000FFF7B8FE0028B9D104F23120C4F8180460
:1083A0002046FFF7B2FBA4F81C0404F21C4205F1BE
:1083B0003C00D4F81814FFF7A5FE0028A6D184F8D5
:1083C0005180208BA4F8480084F83C80266484F80F
:1083D0005060606900216064454604F13C02781EEB
:1083E00072DF002892D1257090E710B50288102A1C
:1083F0001BD0112A20D0262A1DD1007A0C46012834
:1084000001D0022817D1A0780521401CB0FBF1F261
:1084100001FB1201204600F01DF800280BD0A16BD3
:10842000002908D0BDE810400847C27B012A02D1CC
:108430008088A1F8240410BD0C46002184F82E1475
:108440008088B4F824148842F5D120790028F2D12C
:108450000121DFE72DE9F05F044600780F4698B16F
:10846000A7700025C4F82654A4F82A5484F82C5484
:10847000A079012608B1012F09D0E07980B1012F40
:1084800005D0022F03D00BE00820BDE8F09F616B00
:1084900021B184F82D640820884701E084F82D5428
:1084A00004F2274100200A5C0AB1304603E0401C78
:1084B0000628F8D300204FF002084FF0030B012FDD
:1084C00006D0022F0CD0032F0FD0042F15D110E0AF
:1084D000A17929B194F8241011B908B130460DE002
:1084E000E17911B108B1404608E0207A08B1584658
:1084F00004E0607A08B1042000E02846A070616BB7
:1085000041B1032801D0042804D1607910B194F856
:108510002E0498B184F82F5404F13C00182107462A
:10852000FDF7BDFF84F83C6004F12C0004F00AFD67
:1085300058B194F82C0084F8510008E084F83054C5
:1085400084F82F6407208847E6E784F8516094F8A0
:10855000240058B104F1280004F0F4FC20B194F890
:10856000280084F8520001E084F8526084F85050EA
:10857000A27804F2264104F582694FF0060A052A22
:1085800064D2DFE802F07C030F22420084F83160FD
:10859000C4F82054C4E9101584F83C808020A4F865
:1085A000480055E084F8318094F82420384612B110
:1085B0000722027001E080F800B0228A8281C4F8AC
:1085C00020544160E168B96042E06069B860208B86
:1085D000B88194F824003D460028204602D084F853
:1085E0003CA001E084F83C6005F0F6FF50B185F84E
:1085F00014800421204601F038FB38BB052184F8A3
:10860000311021E084F831B01EE0E069B860208CC0
:10861000B88194F824003D460028204602D084F812
:108620003CA001E084F83C6005F0D6FF48B185F835
:1086300014800421204601F018FB38B984F831A0D9
:1086400002E0042084F83100C4F82094A07878B1C6
:108650003A4604F15400D4F8201472DF00287FF465
:1086600014AF94F8301094F8540073DF0028F6D15A
:10867000616B11B194F831008847002005E784F858
:108680003150F5E770B5040012D001461C221448A1
:10869000FDF7ECFE1248134D0560206850B17ADFFB
:1086A000002806D12068016829604068686005E0FC
:1086B0000E2070BD0B487BDF0028FAD108484FF62A
:1086C000FF711438084A20F8041B05493439016049
:1086D0000021FFF73FFB0028EBD0032070BD000016
:1086E000D4390020942B002071E5020010B5044617
:1086F00000F006F808B1204610BD142010BD00009F
:10870000142801D3002070470146014802F0E9B85F
:10871000F43900207CB5054608880C4609309042A3
:1087200001D90C207CBD68466DDF0028FAD1218874
:108730000820685420881B21401C80B220802954C6
:108740002088401C80B220802844DDF801100160A0
:10875000BDF8051081802088801D80B220809DF8A2
:108760000010490800D0012129542088401C208095
:1087700000207CBDF8B52C4C018800266789054691
:1087800021293ED015DC2948294A1029A0EB0200F6
:108790004FEAD0004FF0030202EB004013D0112942
:1087A00026D013292CD100231A46852138467FDF95
:1087B00018E03B2934D052292CD0562920D180886A
:1087C000132176DF0EE01BA102F0AEFF267007201A
:1087D00000F036FB08B1FFF7FDF9A9886181184860
:1087E00002F0DCF900280BD0BDE8F840FFF7F2B941
:1087F00014A102F099FF012020704FF6FF706081F4
:10880000F8BD0096808869468FDF0028F8D0FFF712
:10881000E1F9F8BD00231A4619463846B1DFE1E711
:108820008088132176DFDDE7E02A002060FB02006C
:10883000F0FA0200436F6E6E6563746564000000B9
:1088400090300020446973636F6E6E656374656475
:108850000000000010B51A4C0188606810290ED085
:1088600011292BD1401E606028D1FFF756F900284E
:1088700024D02168002921D0BDE810400847D0B994
:1088800000210122084600F0B9FA08B107280FD1EB
:1088900007220221012000F0B1FA08B1072807D110
:1088A00004220221002000F0A9FA20B1072802D0FA
:1088B000216801B188476068401C606010BD0000FD
:1088C0008C2B00202DE9F04701883B4E40F2F31934
:1088D0004FF6FF7510291BD011293ED0122954D014
:1088E000502946D1C188F289841D914241D16189C4
:1088F00002293ED18688304601F084FA050038D03E
:1089000004F10C0000F0C1F9A8B3294630464EE04E
:10891000C17B8788044601292BD1A846284601F04F
:1089200071FA050017D02F80002028722348434693
:108930004A460168C5F80A104068C5F80E0004F1FF
:10894000100105F10A0001F019FB6872F089002896
:108950000FD129462AE0042013E0808801F052FA62
:10896000040006D06068FFF747FA08B104F0D2FDB2
:108970002580BDE8F087FFE76868FFF73DFA00282B
:10898000F7D0BDE8F04704F0C5BD878806463846F5
:1089900001F038FA0400ECD02B464A4606F10801F3
:1089A00004F10A0001F0EAFA607221463846BDE897
:1089B000F04700F019BE0000D4390020942B0020AD
:1089C0002DE9F04F044686880188424897B08346D7
:1089D00010290CD0112950D0103019296AD01A2929
:1089E00074D1217A0C09042C4DD301224CE0394D6D
:1089F000083DA868C0430B9069680BA801F092FF7E
:108A00000B990CA800F08AFD2C220CA96846FDF7F2
:108A10002DFD0027E946A84610E000BF09EB4700FE
:108A20005FF00005B0F804A008EB85005146001D7A
:108A300001F04CFF6D1C1E2DF6D37F1C0098B84230
:108A4000ECD8142E05D317B00420BDE8F04FFFF783
:108A5000C1B83146584601F04FFF314608F10400D5
:108A600001F04AFFE07B022830D117B03146BDE863
:108A7000F04F1848001D01F03FBF17B03146BDE868
:108A8000F04F01F023BF0022314601F0E9F8032C3A
:108A900001D3012200E000220E4831460C3001F0E3
:108AA000DFF8022C01D3012200E000220948314600
:108AB000083006E0217A002908D1617AC1F3C002AA
:108AC000314617B0BDE8F04F01F0CAB817B0BDE8A5
:108AD000F08F0000F8390020F0B585B016460F463B
:108AE00004001D4614D004AA19466069FFF7E6FA8F
:108AF00000280BD1A5F57F40FF380BD0049848B172
:108B0000007848B13088F42808D9072005B0F0BDB6
:108B10000E20FBE70520F9E70820F7E7002000908A
:108B2000019002900390A088ADF8000001208DF81C
:108B30000200CDE9026769462846AEDFE6E700009D
:108B400070B5334D04008EB02DCD08AE86E82D00F3
:108B50005BD0E9B30868A061214608A862DF00285D
:108B600051D1207801258DF83200ADF83050A21C8B
:108B70000CA92846A8DF002845D120216846FDF72A
:108B80008EFC0220ADF8000020788DF802008DF8F0
:108B90000C509DF80D00F426ADF8046040F00C0078
:108BA0008DF81150ADF806508DF80D008DF812506B
:108BB000608804F10C02694600F0BAFB002822D15B
:108BC00020216846FDF76BFC0320ADF8000000E0B3
:108BD0001BE020788DF802008DF80C509DF80D00F8
:108BE0008DF81150ADF8046040F010008DF812506F
:108BF000ADF806508DF80D008DF813506088221DD9
:108C0000694600F095FB0EB070BD0E20FBE700003A
:108C1000D4EF020070B588B00446002927D0002C9C
:108C200025D008462188102923D0502927D057293C
:108C30001DD10546A188406906AAFFF73FFA002822
:108C400015D1069E3078002811D0A86900280ED0D2
:108C500018216846FDF723FC01208DF800000195DE
:108C6000A088ADF808000396A9696846884708B04F
:108C700070BD08B02146BDE8704004F041B808B0AE
:108C80002146BDE8704004F01BB9007800F00100F7
:108C9000704700000149085C704700008CEF02003B
:108CA00007490B5C4FF0A041D1F804250120984002
:108CB00020EA0203C1F808351040C1F80C057047DE
:108CC00088EF02000249085C012102F0D8BA0000D6
:108CD00088EF02000249085C002102F0D0BA0000CF
:108CE00088EF02000649095C4FF0A040D0F8040567
:108CF000C84010F0010000D0012080F00100704752
:108D000088EF020010B500242046FFF7DBFF641C4B
:108D1000042CF9D310BD10B500242046FFF7DAFF6C
:108D2000641C042CF9D310BD10B50246064B4FF05D
:108D3000FF3000215C5C944201D1084610BD491C03
:108D40000429F7D310BD00008CEF020010B50020FD
:108D500000F066F908B1062806D1012000F060F99C
:108D600008B1062800D1002010BD00002DE9F04711
:108D70000D468146FFF7D8FF0446042836D2DFF8B7
:108D800074801B481C4EA8F10C0725B3012D0ED092
:108D9000022D2BD104EB440030444578002D25D022
:108DA000B968002922D02846BDE8F047084704EBFF
:108DB0004401755C0E44717849B10E4A4FF480410C
:108DC000093A8068FFF700F808B987F80390B1788E
:108DD00008F80410E2E78068FFF70EF804EB44019E
:108DE000314418F804008D78A842D7D0BDE8F08748
:108DF00090EF0200882B00207039002070B500230E
:108E0000042810D20D4D00EB4004012A02D10129A3
:108E10000CD00022094E00EB4000304461B1012922
:108E200006D0022906D00723184670BD0E30C2B204
:108E30002A55F9E74270F7E78270F5E770390020AC
:108E4000044A014600201279D20702D0084600F0F9
:108E500003B870477C2B00202DE9F05F6E4C05466F
:108E600000266078B34618B184F801B001F084F9A7
:108E70006A4F4FF47A694FF4C87A4FF00108182D01
:108E800069D2DFE805F00C1313384754696E727B22
:108E9000727BC58484848484B3B6B9BCC5C501F033
:108EA0006BF93868FEF7A8FF06465CE00020FFF784
:108EB00019FF00284FF0000008D0FFF703FF022D34
:108EC00002D14FF4E16008E0484606E0FFF702FFF8
:108ED000022D01D1C82000E05046410CC0034FF4E0
:108EE0007A72801841F10001257052000023FDF7CD
:108EF00079FA01462AE00020FFF7F4FE00284FF03F
:108F0000000004D0FFF7DEFE4FF44870E5E7FFF7FE
:108F1000E1FEDFE70020FFF7E5FE00284FF000004C
:108F200002D0FFF7CFFECFE7FFF7D4FED4E7002053
:108F3000FFF7D8FE00284FF0000002D0FFF7C2FE76
:108F400001E0FFF7C7FE257040F6CD4100223868EA
:108F5000FEF73AFF064646E00020FFF7A1FE257027
:108F600008E0002051E025703DE084F801800120F8
:108F7000FFF796FE002240F26661E8E784F8018080
:108F80000120FFF78DFE00224FF40051DFE77868E3
:108F9000FEF732FF0646D5F1110000D02EB10220B7
:108FA000FFF790FE84F802B01DE0012816D980B2C8
:108FB000C8214843C117C90341EA5041C0034FF4D7
:108FC0007A72801841F1000152000023FDF70AFA7D
:108FD000014600227868FEF7F7FE06460220FFF7FA
:108FE00079FE84F802803046BDE8F09F01F0C4F8B5
:108FF000B9E701F0C1F8B4E701F0BEF804E001F010
:10900000BBF80020FFF766FE0120FFF763FEAAE72A
:10901000FFF781FEA7E700007C2B002090EF020005
:10902000012105F05EBB00002DE9F84F0546861CC6
:1090300000208DF8000091460F464FF0010A684667
:10904000FEF776FF1B4C04F21C4860683860D4E9D8
:109050000101194F401A3968081A0EE001214046F3
:1090600001F05AFC01F008F90146404601F054FCB9
:10907000D4E90101401A3968081A401C8642EDD82B
:10908000B9F1000F03D0052065F3891002E0062036
:1090900065F39F5061683A68114004EB8101C86034
:1090A0006068304460609DF80000FEF765FF504640
:1090B000BDE8F88FD43D0020382C002070B50D4657
:1090C00004460A2902D10D21FFF7F8FFA0682268A3
:1090D000411CA1601554D4E90101814204D320460A
:1090E000BDE8704001F0EDBE70BD0000044881682D
:1090F0004068814201D10120704700207047000084
:10910000D43D002070B5064610481149114D401A53
:10911000C108032000EB01406A7804460EA102F06A
:1091200007FBAA78204610A102F002FB0B2E07D005
:109130000C2E03D00D2E08D1002002E0012000E00B
:109140000220BDE8704000F019B870BD60FB02005D
:10915000F0FA0200602B00204B6579707265737322
:1091600065643A20256400004465626F756E63652E
:1091700020666C61673A20256400000070B5194CC8
:109180000546607808B9A07810B10020607070BD05
:109190002078144E00EB4000103630441349425DF5
:1091A0001148401AC008032101EB004010A102F051
:1091B000BFFA2078E16800EB40003044405D087061
:1091C000012565700B4EB068FEF716FEA5700022F3
:1091D0006903F068FEF7F8FD0028D8D0BDE87040BC
:1091E000FEF7F8BC602B002060FB0200F0FA0200E2
:1091F0002563000078EF02000068FFF783BF0A21B3
:10920000B0FBF1F201FB1202B0FBF1F042EA0010F8
:10921000C0B2704705494FF0FF32082841F82020BE
:1092200002D3084480F8482070470000803A0020AC
:10923000F0B54FF0FF3512B10023082601E00823F6
:109240000C260C4C05E000BF54F823707F1C04D0A2
:109250005B1CB342F8D32846F0BD26185DB286F8F1
:10926000305044F82310002AF5D1E11881F8480065
:10927000F1E70000803A00200249084490F93000EC
:1092800070470000803A00202DE9F74FA2F11F003F
:10929000612849D22549C86903784578867890F8CD
:1092A000039005F03BFA8C682C44A0420DD20024B8
:1092B0008C6088693044886100F098FDCF69BF7880
:1092C000C01B8F69B84200D88C61C8698B46001DED
:1092D000203A02FB0308002498F800A01CE00027B5
:1092E00017E000BF09FB0781C4F3C400401C04F071
:1092F0000702095C012090400142019800EB040143
:109300000098384401D1002200E0012203F04AFE17
:109310007F1CAF42E6D3641CB442E0D3DBF80820E4
:1093200002EB0A01CBF80810BDE8FE8F202B0020CD
:109330002DE9F0438146887891B090460C4600B9FB
:1093400001208DF83E002088ADF83C0000250095F6
:10935000607C694604F084F96E46A07C711C04F0C0
:109360007FF9E07B00289DF8020002D040F0080061
:1093700001E020F008008DF80200217C11B140F0DE
:10938000100001E020F010008DF80200217B11B1E7
:1093900040F0010001E020F001008DF80200217D85
:1093A00009B1022100E0012161F342008DF80200C1
:1093B0001C2102A8FDF773F8607BC10601D480066A
:1093C00017D50E950EAFE07C791C04F049F99DF895
:1093D0003800079720F00F00401C20F0F0001030FC
:1093E0008DF838009DF83A0020F00600801C8DF8BA
:1093F0003A00607B8DF80800A07B8DF809001421ED
:1094000009A8FDF74CF80FA8CDE90906A088ADF82A
:109410003000A06820B1E088ADF82C00A0680D9065
:10942000A06998B301950088ADF81000A06901AD5E
:1094300001A94088ADF81200A06940680695039024
:10944000A069007B04F00CF9A069691C407B04F062
:1094500007F9A069807A00289DF8060002D040F044
:10946000080001E020F008008DF80600A169C97A23
:1094700011B140F0100001E020F010008DF806005E
:10948000A169097A19B140F0010002E00DE020F075
:1094900001008DF80600A169897B09B1022100E075
:1094A000012161F342008DF80600E06900B10590EA
:1094B000434609AA02A94846AADF11B0BDE8F083D5
:1094C00070B5084C050009D010342168002907D078
:1094D00008682060496828468847F6E70834F4E7BA
:1094E00070BD00006C3A0020054A012120B101281E
:1094F00005D19170FFF7E4BF51700020FAE7704783
:109500006C3A002010B5D0E90234D1E90220D11A1A
:10951000A04101D3012010BD002010BD73B58CB057
:109520000646002000900D9880B100246D4621462B
:109530000DA801F0D6F930B1009805EB4000848009
:109540000098401C0090641C142CF0D32C22694617
:109550003046FCF78BFF0EB070BD2DE9F041178847
:109560000646B81D14460D46984202D90C20BDE8A7
:10957000F0813188072206290AD34FF4486C4FF650
:10958000FF73614501D9994202D17088062801D242
:109590001046ECE7604501D99842F9D1994203D0D1
:1095A000984201D08142F3D80520E8552088122145
:1095B000401C80B2208029542088401C80B220802A
:1095C0004119308804F075FF2188084480B220805A
:1095D0004119708804F06DFF218808442080002024
:1095E000C5E7FEF7F7BA000038B54A7A0F4B62B10B
:1095F00000220A725969002906D001228DF8002044
:10960000ADF802006846884738BD0A7A62B19B68A7
:109610004C68024619462046FEF7D6FB0028F3D0D8
:10962000BDE8384003F076BF5B68F1E7D43900202D
:109630002DE9F047DFF84490114F00244FF08008E7
:10964000002003F031FF102003F02EFFE0B240F0C5
:10965000B00003F029FF99F8000001F0FBFDE501DF
:1096600008EBC41603E0785D03F02AFF6D1CAE42E0
:10967000F9DC641C082CE3DBBDE8F087202B00201C
:10968000E934002070B588B00646002005900690A9
:10969000ADF81410ADF816100190029001AA05A9BA
:1096A000304690DF050021D002F062FC03461148ED
:1096B00011493246401AC108012000EB014004461E
:1096C0000E4902F03CF8BDF8042012B9BDF80600BE
:1096D00028B1BDF80630204609A102F030F8BDF8E7
:1096E00008201AB12046164902F022F808B0284690
:1096F00070BD0000F0FA0200F0FA020040F3020030
:10970000546865207265717565737465642054587A
:109710002F5258207061636B6574206C656E67749E
:109720006820697320746F6F206C6F6E6720627998
:109730002025752F2575206F63746574732E0000C6
:109740008CF302000D4910B5002088700C480D49BB
:10975000401AC008032101EB00400BA101F0E4FF17
:109760000D48002240F266618068FEF72DFB00285C
:1097700003D0BDE81040FEF72DBA10BD602B0020CD
:1097800060FB0200F0FA02004465626F756E63656B
:1097900020656E646564000078EF02002DE9F04FEB
:1097A0002DED028B83B00126DDE90FA9DDF838B07D
:1097B000B0EE408A1D46174688460446012800D070
:1097C000ECB914237F2219460020009600F0ECFC2F
:1097D0000521302000F04AFDCDE9005B3B464246C2
:1097E00046A14B48CDF808A0FDF7D8FC484F00250E
:1097F000785DFEF763F96D1CEDB2102DF8D3022CE5
:1098000000D0F4B92321002000F030FD4846B9F122
:10981000010F05D0022806D0B9F1030F08D114E0DA
:1098200002463CA101E002463DA14048FDF7B6FCDE
:109830003E4F0025785DFEF741F96D1CEDB2072D16
:10984000F8D3032C04D01CB124E0024638A1ECE785
:109850002D22432314211046009600F0A5FC18EE9B
:10986000100AFCF737FE41EC100B294853EC102B83
:1098700031A11030FDF792FC2321322000F0F6FCDC
:10988000234E00251036705DFEF718F96D1CEDB201
:10989000092DF8D3042C00D0CCB90521002000F00C
:1098A000E5FC119810B1012807D101E024A100E0E6
:1098B00025A11E48401FFDF771FC1C4D00246D1FA3
:1098C000285DFEF7FBF8641CE4B2052CF8D3FFF723
:1098D000AFFE1F481F49401AC008032101EB00409A
:1098E0001DA101F021FF00BF01F0AEFD0028FBD15A
:1098F00003B0BDEC028BBDE8F08F000025643A2573
:10990000642025642F25642F323025640000000078
:10991000D03400202564204D61697A650000000084
:109920002564204265616E7300000000452B002015
:109930002564205065617300252E3266204B470058
:109940002D2D582D2D000000434F4E4E2D000000B0
:1099500060FB0200F0FA02004C4344207374617211
:109960007465642E000000001FB508480121B6EEA2
:10997000000A827943790093CDE9012103910379AB
:109980008278C1780120FFF709FF1FBDE02A00207F
:1099900010B50021024800F0D0FF80F3100010BD88
:1099A000F04100204FF480328A400168C1F848231A
:1099B0000068C0F8082370474FF4A07202EB8101E1
:1099C00089B200F030B92DE9F04105460E464FF45A
:1099D000A07000EB860081B228684FF48034B44058
:1099E000984622F07F47C0F808432868C0F84843EB
:1099F000286802F06BF8286800EB8600C0F8407514
:109A00002868C0F84443B8F1000F02D02868C0F8B5
:109A10000443BDE8F0810068D0F8040570470000F9
:109A200070B54379234C44F823204279231D03EB7E
:109A3000C202224C1579204A121BD4082DB10825E8
:109A4000022000EB04401EA130E005680A88C5F83A
:109A5000082590F904208978002A4FEA411104DB97
:109A600002F1E02282F8001405E002F00F0202F198
:109A7000E02282F8141D90F904100122002909DB6C
:109A800001F01F0502FA05F54909890001F1E021FD
:109A9000C1F800514179002503EBC1010A714179F8
:109AA00043F83100032000EB04400EA101F03CFE1E
:109AB000284670BD182C002048FB0200F0FA020076
:109AC00052544320696E7374616E636520616C72D9
:109AD0006561647920696E697469616C697A65642D
:109AE0002E0000005254433A20696E697469616C1B
:109AF000697A65642E00000090F90400002809DBF3
:109B000000F01F02012191404009800000F1E02097
:109B1000C0F8001270470A46022100F07BB84FF4EB
:109B2000827100F080B80068012101607047006810
:109B30000121416070472DE9F05F07460C464FF464
:109B4000A07000EB84001FFA80FA38684FF480366A
:109B5000A6409B4622F07F45C0F848633868C0F8AD
:109B600008633868D0F8048500EB8402D2F8409589
:109B7000C2F840855146386801F0A8FFA9EB0800FB
:109B800020F07F40012806D1102002F071FA5146E2
:109B9000386801F09BFF3868D0F80485C0F844634A
:109BA000A5EB080121F07F413868012900EB840012
:109BB00010D0C0F840553868D0F804156FF07F4CCD
:109BC0006A1A521E22F07F42ACEB0B03934217D36A
:109BD00062B118E06D1CC0F84055102002F048FA40
:109BE0003868D0F8040540450AD10CE000EB840049
:109BF0006D1CC0F840553868D0F80405884202D082
:109C00000D20BDE8F09F01223146384600F002F8F1
:109C10000020F6E70368C3F84413002A02D0006866
:109C2000C0F80413704710B5006842581AB101F02B
:109C30004DFF012010BD002010BD826883881A40AE
:109C400003689A5C0A708168491C81607047C26829
:109C500083881A4003689954C168491CC1607047E1
:109C60000AB100F049BE00F031BE70B50D460446A1
:109C7000B0F81414D0F810040122FEF704FB00B170
:109C8000057004F13C0204F5826104F1540072DFB6
:109C900070BD00000C484A8843899A4213D10A8853
:109CA000A2F52063773B0ED18988C91E8AB28281D2
:109CB000064807491346401AC008032101EB00403B
:109CC00004A101F03CBD7047E02A002060FB0200C7
:109CD000F0FA020044617461206C656E20697320A3
:109CE00073657420746F2030782558282564290006
:109CF00010B50949094800F097FE08B1FDF76AFF61
:109D0000F721064800F084FE002803D0BDE810408B
:109D1000FDF760BF10BD0000959C02007C30002064
:109D200010B50B48FFF777FE094A083AD2E9043428
:109D3000C018D2E9063244F10001C31A71EB0202E5
:109D400004D24FF08072801841F1000110BD000074
:109D5000E02B00207CB502F049FA08B1FDF73AFF8C
:109D60001A4E1B4D002430680190285D01A902F0B5
:109D70007FFA08B1FDF72EFF641CE4B2042CF4D383
:109D80000024285D02F0D2FA641CE4B2042CF8D35B
:109D90007068009003200E4D00248DF80100ED1E28
:109DA0000C4A285D694602F0BBF908B1FDF712FFC5
:109DB000641CE4B2032CF3D300240121285D02F0DB
:109DC0005FF9641CE4B2032CF7D37CBD78EF02008A
:109DD000662B0020D99D020013B5034A0421684672
:109DE000FDF72CFF1CBD0000F9910200044800693A
:109DF00018B1022801D04020704780207047000031
:109E0000202B00200146034802888A4200D000200F
:109E100070470000C03900202DE9FC5F0E0083462A
:109E2000DDE90C47C6F1000098469246814600D411
:109E30000846012503E000BF90FBFAF06D1C504579
:109E4000FADAA84500D9454624B1002E01DB78078F
:109E500000D5641EB80702D5B8F1000F0AD0F80784
:109E600008D13CB1A54205D220215846641EFFF717
:109E700025F9F6E7002E02DA4E462D2102E078079A
:109E800003D52B215846FFF719F907F003000228E4
:109E90000BD1B8F1000F08D13CB1A54205D2302159
:109EA0005846641EFFF70AF9F6E7CDE90047434636
:109EB00052463146584604F001FBBDE8FC9F0000C5
:109EC00070B50D46044600684FF4887102F07BF8C7
:109ED0004FF49071206802F076F84FF49271206888
:109EE00002F071F84FF4A271206802F06CF84FF4A0
:109EF000AC71206802F067F820681249C0F80413BA
:109F00002068690740F30730090E002804DB00F1E0
:109F1000E02080F8001405E000F00F0000F1E020E0
:109F200080F8141D206840F30730002809DB00F09A
:109F30001F02012191404009800000F1E020C0F89B
:109F4000001170BD10034200024600201268530742
:109F500013D502F00300012802D002280CD105E03D
:109F6000C2F383100B68801C184404E002230868C5
:109F700003EB92521044086001207047F0B58488CA
:109F8000A518944200D82246A41AC288D6189A422C
:109F900000D81346D21A4B880788BB420CD340889E
:109FA000834209D88888A04206D3A84204D8C8882A
:109FB000904201D3B04201D90020F0BD0120F0BD94
:109FC000184910B5C860FFF7C5FE174A01211748A8
:109FD000FDF7C0FE08B1FDF7FDFD1448144A00214D
:109FE000001DFDF7B7FE08B1FDF7F4FD0F48002294
:109FF000083840F266618068FDF7E6FE08B1FDF7BB
:10A00000E9FD0C480C49401AC008032101EB00404F
:10A010000AA101F089FB00BF01F016FA0028FBD16C
:10A0200010BD0000602B002071D9020080EF0200FB
:10A030004597020060FB0200F0FA02004B65797060
:10A04000616420737461727465642E007FB5454C41
:10A05000089E054623706670A270E570184621714F
:10A0600001F094F8607801F091F83F4AD2E90F01CD
:10A07000926C0392CDE90001A0788DF80300FF20D7
:10A080008DF80200E0788DF8010020798DF800004D
:10A090004FF00040029000208DF80C008DF80D006C
:10A0A00003463148314A69462C3000F049FE08B178
:10A0B000FDF790FD21784FF0A046012505FA01F04B
:10A0C000C6F80C051F2006F20C5601F0C3F86178A3
:10A0D00005FA01F03060322000F0E8FD607801F010
:10A0E000B9F8052000F0E2FDE22003F0DDF9A3203D
:10A0F00003F0DAF9AF2003F0D7F9A02003F0D4F988
:10A10000C82003F0D1F9222003F0CEF9812003F01A
:10A11000CBF93F2003F0C8F92F2003F0C5F9402008
:10A1200003F0C2F9B02003F0BFF9102003F0BCF92E
:10A13000002003F0B9F9AF2003F0B6F9A42003F032
:10A14000B3F9A62003F0B0F9A9020948FCF7A7F972
:10A15000FFF76EFA00216571084600F087F80548A0
:10A16000E0617FBD202B002000EF020035D7020008
:10A17000E934002006E802000A4810B5807860B192
:10A18000002401E0022C06D02046FEF79BFD641C53
:10A19000042CF7D310BD0324F6E7BDE81040FEF70A
:10A1A000B1BD00007C2B00202DE9FF5F07460E4665
:10A1B00002989A1BC11B9B464FF0FF34002901DD1A
:10A1C000012500E02546002A00DD012469436243A1
:10A1D0004FEA41094FEA4208914215DBA8EB010A18
:10A1E000A8EB09090CE0314638460E9A02F0DAFE77
:10A1F0002F44BAF1000F01DAC24401E0CA442644F8
:10A2000002988742EFD113E0A9EB020AA9EB0808F4
:10A210000CE0314638460E9A02F0C4FE2644BAF1EC
:10A22000000F01DACA4401E0C2442F445E45F0D178
:10A23000314638460E9A02F0B5FE054840790028AE
:10A2400003D0BDE8FF5FFFF7F3B9BDE8FF9F000053
:10A25000202B0020F721018017214180002101716E
:10A260004171FB2181711B21C1717047014A9161CC
:10A2700090607047202B00202DE9FF4100262448E4
:10A2800000F047FB2248001F074600F042FB214C2C
:10A290002149A06800900D6800E0009869462840B8
:10A2A00004EB80000C30FFF74FFE0028F5D101AA27
:10A2B000009901EA050304EB8303491CDB6842F8BB
:10A2C0002030401C00910228F2D3019800F00300D6
:10A2D00001280BD0022810D10198032101EB9050E6
:10A2E0000099BDF80A6001EB900005E00198BDF807
:10A2F0000A60C0F3831008440090384600F006FB63
:10A3000008B10098A06004B03046BDE8F0810000BC
:10A31000EC410020D43D0020382C0020ACB01822A5
:10A32000BC496846FCF7A2F8BB480690BB494FF40D
:10A330008070CDE9070109900723B94A06A968464C
:10A34000FDF77AFD08B1FDF745FC4FF48041002090
:10A3500001F06CFA08B1FDF73DFC01F067F8FDF77C
:10A3600005FD08B1FDF736FCAA48AE4A01210838C0
:10A37000FDF7F0FC08B1FDF72DFCA648AA4A002124
:10A38000001FFDF7E7FC08B1FDF724FC01F058FBC6
:10A3900008B1FDF71FFC01F009FD08B1FDF71AFC3B
:10A3A000002469460120009401F0A0FB08B1FDF7EC
:10A3B00011FC684601F032FC08B1FDF70BFC9DF87A
:10A3C00008009AA120F00F00401C20F0F00010308F
:10A3D0008DF808000B2202A87CDF08B1FDF7FAFB1C
:10A3E00000941020ADF800003C200194ADF802006C
:10A3F000ADF804404FF4C870ADF8060068467ADF47
:10A4000008B1FDF7E7FBFFF773FC8B48019001A94A
:10A410008A4800F0CEFB08B1FDF7DCFB88480090CD
:10A4200069468848FEF78CFB08B1FDF7D3FBAC21E9
:10A430006846FCF734F84FF002088DF800808DF87C
:10A44000024005208DF803007E480125801F1490EE
:10A45000ADF84C504020229044F2506023908DF88B
:10A460007C5079482990754869460C30FDF741FFCA
:10A4700008B1FDF7AFFB714801210C30FDF736FF45
:10A480001C216846FCF70BF84FF4A030CDE90040E2
:10A490004FF4F02002906D48059003276C488DF82A
:10A4A0000C700690ADF80E408DF810406846FEF72F
:10A4B000E9F808B1FDF78EFB01A84FF01509042655
:10A4C0000B21009480E8420212230C221B211A2047
:10A4D000FCF766FB03231F221C211D200096FFF7BB
:10A4E000B5FDCDE90254CDE90069B6EE000A1E23A0
:10A4F0000C2213210020FFF751F952480C38FFF7C6
:10A500005FFD4448002208384FF470210068FDF7D1
:10A510005BFC08B1FDF75EFB484A0A21C43A0820FB
:10A52000FDF7FCFB08B1FDF755FB4A484A49401AC4
:10A53000C00807EB0040074648A101F0F5F800BF4E
:10A5400000F082FF0028FBD13C4803210C30FDF7CE
:10A5500081FF08B1FDF73EFB384645A101F0E4F864
:10A5600000F072FF0028FBD1364E143E307810B157
:10A57000012809D018E0B07971790091CDE9010581
:10A58000B6EE000A039507E0B0797179CDE90010C5
:10A59000CDE90254B6EE000A3379B278F17804209E
:10A5A000FFF7FCF886F80080F07970B1B079717926
:10A5B0000091CDE901050395B6EE000A3379B27832
:10A5C000F1780120FFF7EAF8F471307A411E022990
:10A5D00017D8B179727903950092CDE90110B6EEE2
:10A5E000000A3379B278F1780220FFF7D7F83846BD
:10A5F000327A25A101F09CF800F026FF0028FBD15B
:10A600003472FDF76BFB00F01FFF0028AED101F0A4
:10A610002BFAABE7E8E70200CC2D0020CC2E00207F
:10A6200015E00200316B0200699902004E6F7264FE
:10A6300069635F5541525400ADBA0200903000206A
:10A64000EDCB0200F42A0020C1CC0200E5CC0200D0
:10A65000E395020060FB0200F0FA020053636865B4
:10A6600064756C657220737461727465642E000089
:10A670004164766572746973696E67207374617280
:10A680007465642E000000004B657956616C3A20B9
:10A690002564000070B5144682880E460546208861
:10A6A000111D0144921C994201D8FE2A01D90C20A7
:10A6B00070BD521C32542088FF21401C80B2208083
:10A6C00031542088401C80B220808119288803F0F2
:10A6D000F0FE2188084480B22080AA8842B1A9688F
:10A6E00041B13044FBF7C2FE2088A988084420808D
:10A6F000002070BD072070BD2DE9F047C5881E1DE4
:10A70000B6FBF5F78946B6FBF5F1044605FB176C79
:10A71000407916686843DDF820A0F718001F8742CB
:10A7200000D9C61A166001E02468491E0029FBD131
:10A73000A5EB0C078846B74216D818E004EB0C00CE
:10A74000001D09EB0803BAF1000F3A4602D001469A
:10A75000184600E01946FBF789FE2468F61B4FF007
:10A76000000CB844B54201D9374600E02F46002E10
:10A77000E4D1BDE8F087000030B5024651B101F0E8
:10A7800069F80021074C08E034F821301568AB4225
:10A7900002D11160002030BD491C8142F4D3052054
:10A7A00030BD000000000000F8B50F4601781446E7
:10A7B0000546012901D1687830B12088821C9A426F
:10A7C00032D8012902D006E00720F8BD697801449B
:10A7D000891C994228D8181A801E86B2ADF80060EC
:10A7E0002188B81C084469467DDF0028EDD129780E
:10A7F000022904D06878BDF80020904205D3BDF846
:10A800000000B04201D809200AE00820012905D142
:10A810006978B14202D8ADF8001001E0ADF80060EF
:10A82000BDF80010FE2901D90C20F8BD2288491C72
:10A83000B9542188491C89B2218078542088401C51
:10A840002080BDF80010084420800020F8BD10B51D
:10A8500031B1B2FBF3F403FB14241CB1092010BD89
:10A860000E2010BD01600021416081608281C381A2
:10A87000084610BD70B50C460546FBF7CBFC00281A
:10A8800002D021882868084470BD10B50A8849881C
:10A890008A4203D1FBF700FD012010BD002010BD4E
:10A8A00070B50C460546FBF7DAFC002802D061883B
:10A8B0002868084470BD10B50A8849888A4203D1C7
:10A8C000FBF7C4FC012010BD002010BD01F01F03E8
:10A8D00001229A40D243490900EB8100114600F061
:10A8E00021B84A0950F8220001F01F0201219140CD
:10A8F000084000D00120704701F01F0301229A4058
:10A90000490900EB8100114600F01CB8002100F05D
:10A910000FB8012100F016B808B56A46FBF711FD23
:10A92000009808BD08B56A46FBF7F1FC009808BD21
:10A9300008B56A46FBF7EBFC08BD08B56A46FBF7AD
:10A94000CDFC08BD08B56A46FBF7D4FC009808BDED
:10A9500008B56A46FBF702FD009808BD38B5044605
:10A9600000258DF800506846FDF7E2FA216862681C
:10A97000086890420ED9401E08600178238AE26878
:10A9800001FB0325227A2168101AC0B20A7982429B
:10A9900000D208719DF80000FDF7EEFA284638BD98
:10A9A00038B5054600208DF800000C466846FDF7D6
:10A9B000BFFAE868298A201AB0FBF1F12A6810680A
:10A9C000431C136001709DF80000FDF7D5FA38BDF7
:10A9D00010B530B1017A42680368891AC9B21A60A9
:10A9E00006E00E2010BD03681A68541C1C6011702C
:10A9F000491EC9B2F7D2006800210171084610BD96
:10AA0000C20800F007030120895C984008407047A5
:10AA100028B1A1F11702E12A03D3072070470E20C5
:10AA2000704701800020704710B560B10161F721C7
:10AA300020F8021B20F8021BFB2100F8021BFFF785
:10AA400009FC002010BD0E2010BD0000F0B5858867
:10AA500093B00C46002D39D1018800263F4F2429A0
:10AA60003BD006DC102909D011290CD0232958D15C
:10AA70004FE03A290BD0552953D129E00146204611
:10AA800002F074F94DE0A01DFFF7E4FB49E0224617
:10AA9000408934F8061F814200D808466080172894
:10AAA00000D217206080106970B1607960B1D7E979
:10AAB0000001CDE90301ADF80E506088ADF810003B
:10AAC000136903A9104698476671267113B0F0BD4B
:10AAD0000146204602F09EF923E0011D2C2206A823
:10AAE000FBF7C4FCBDF81800BDF81C2004EBC00146
:10AAF0004A732269AAB1D7E90423CDE90423ADF84A
:10AB00001200487B8DF814002269204604A9904762
:10AB100007E0017A207B884200D201462846FEF7F2
:10AB2000B1FDA07A0028D1D0E1882846A5DF012513
:10AB300080B11128CAD001F01BFA02460848094921
:10AB400013B0401AC00805EB0040BDE8F04006A174
:10AB500000F0EEBDA672E572B8E70000BCEF02009F
:10AB6000F0FA0200F0FA020073645F626C655F67DE
:10AB7000617474635F65786368616E67655F6D7447
:10AB8000755F7265717565737428292072657475B7
:10AB9000726E65642025732E0000000020B10278DB
:10ABA000DE2A03D0082070470E2070474180002025
:10ABB000704760B159B10278DE2A0AD00968416055
:10ABC000DE2101704FF6FF714180002070470E209A
:10ABD0007047082070477FB5054600294DD0002DED
:10ABE0004BD008780C46DE2847D1A8886188884277
:10ABF00002D1204603F0FCFC2888012825D0022839
:10AC00003BD011283AD0512837D135F8040F61884C
:10AC1000884232D1A978A81C02292ED1017A0429B0
:10AC200003D0062901D0052927D100210091022255
:10AC30008DF8002001914FF4C07202910391ADF89C
:10AC40000420007A05280FD010E0297A2046012937
:10AC500013D1A988428891420FD10121017204B019
:10AC6000BDE8704003F0C4BCADF804102888694604
:10AC7000B0DF002801D0616888477FBDA88861885F
:10AC80008842FAD14FF6FF7060807FBD00F18040AE
:10AC90000068002800D00120704708B500F180400E
:10ACA000002101600068009008BD00002DE9F0411E
:10ACB000040007D0044E4FF47A47751C3846A84765
:10ACC000641EFAD1BDE8F08100E8020070B50D4CB9
:10ACD0000125207808B185260EE00020A060606084
:10ACE0002061E060084801F093F9064601F0AAF8F7
:10ACF00008B901F077F9257001F06CF900B1A57081
:10AD0000304670BD6C3A0020E994020038B5002549
:10AD10008DF800506846FDF70BF9084CE068401EBE
:10AD2000E060E06828B901F055F910B901F080F948
:10AD3000A5709DF80000FDF71FF938BD6C3A0020A2
:10AD40002DE9FF411C460378164D174E45F8232088
:10AD50000C3545F82340F0CE8DE8F0000C788DF8E6
:10AD600000404C788DF801408C788DF80240CC780A
:10AD70008DF803400C798DF805404C798DF806402C
:10AD80008C6802940C7B8DF80C40497B8DF80D107B
:10AD900002B1064A6946001D01F004FB04B0BDE89B
:10ADA000F08100002C3B0020F0EF020091D7020060
:10ADB0002DE9F041064604780B4815460F4640F849
:10ADC0002420083040F82430487B10B1084602F0B7
:10ADD00041FE0DB1054A00E0002223463946301DF0
:10ADE000BDE8F04101F0D8BBB82B002055DB0200D4
:10ADF00038B5001D049C009401F058FC38BD0000DB
:10AE0000F0B505460478154889B0164640F8242068
:10AE1000124A0869121DA2F1080742F82400487F6F
:10AE2000385520226846FBF721FB04942878385CCB
:10AE300048B10EB10A4A00E000226946281D01F01F
:10AE4000B9FD09B0F0BD0EB1064A00E00022694626
:10AE500005F10C0001F062FCF3E70000A02B0020DC
:10AE600071E3020015E2020030B40378054CE35CA4
:10AE70001BB130BC001D01F0D3BD30BC0C3001F063
:10AE8000B7BC00009C2B002030B40378054CE35C79
:10AE90001BB130BC001D01F045BE30BC0C3001F0D0
:10AEA0001DBD00009C2B00200FB408B5039900299C
:10AEB00004D004AA00926A4600F00FF801B05DF8D1
:10AEC00014FB10B582680446002A05D0D4E90403B7
:10AED000216898470020A06010BD2DE9FC479146ED
:10AEE0000C00804676D014F8011B39B125290ED00C
:10AEF0004046FEF7E3F820780028F4D198F80C00DB
:10AF0000002867D04046BDE8FC47FFF7DABF0020C5
:10AF1000012221782B291BD02D2902D0302908D1DC
:10AF200002E040F0010001E040F00200641C002A51
:10AF3000EFD100252A290ED02178A1F130020A2A6A
:10AF400011D205EB850201EB4205641C303DF1E7AF
:10AF500040F00400EAE7D9F800100B1DC9F80030F2
:10AF60000968641C0D44217800232E290BD114F8A4
:10AF7000011FA1F130020A2A05D203EB830201EB83
:10AF80004203303BF3E76C290DD068290BD06929C7
:10AF900021D00BDC252918D0582931D063290ED0B7
:10AFA000642915D117E014F8011FECE7702969D066
:10AFB000732932D075291BD0782909D120E0D9F81E
:10AFC0000000011DC9F8001001784046FEF776F830
:10AFD000641C90E76CE0D9F800100A1DC9F8002045
:10AFE0000968CDE900500A224046FEF715FFEFE759
:10AFF000D9F800100A1DC9F8002009680A2206E0E5
:10B00000D9F800100A1DC9F8002009681022CDE9FE
:10B010000050404603F052FADAE7D9F80010002752
:10B020000A1DC9F800200E68C00705D112E040468D
:10B03000761C7F1CFEF742F831780029F7D104E036
:10B04000202140466D1EFEF739F8BD42C0D9002DC3
:10B05000F6D1BDE74EB13046FBF72CFA074604E0C7
:10B06000202140466D1EFEF729F8BD4206D9002D6D
:10B07000F6D103E04046761CFEF720F8317800292F
:10B08000F8D1A5E7D9F80000011DC9F8001005683E
:10B0900030214046FEF712F878214046FEF70EF8C0
:10B0A00008200021CDE90001034610222946B0E71F
:10B0B000BDE8FC8770B541EA4201DDE904564FF076
:10B0C000A04441EA830141EA052104EB800041EA02
:10B0D0000641C0F8001770BD70B541EA4201DDE9D4
:10B0E00004564FF0A04441EA830141EA052104EBF4
:10B0F000800041EA0641C0F8001770BD70B541EA12
:10B100004201DDE904564FF0A04441EA830141EADF
:10B11000052104EB800041EA0641C0F8001770BD2C
:10B1200070B541EA4201DDE904564FF0A04441EA1E
:10B13000830141EA052104EB800041EA0641C0F8A1
:10B14000001770BD70B541EA4201DDE904564FF0C9
:10B15000A04441EA830141EA052104EB800041EA71
:10B160000641C0F8001770BD1CB500220B460092C6
:10B1700011460192FFF7B0FF1CBD1CB500220B4623
:10B18000009211460192FFF7B9FF1CBD4FF0A0429B
:10B1900002EB80000321C0F8001770471CB50021A6
:10B1A00000910B46012201911146FFF795FF1CBD4E
:10B1B0001CB5002100910B46012201911146FFF7B9
:10B1C0009DFF1CBD1CB5002100910B460122019181
:10B1D0001146FFF7A5FF1CBD4FF0A04202EB800017
:10B1E000D0F8002722F44032C0F80027D0F800271A
:10B1F00042EA0141C0F800177047000038B5094B1A
:10B2000044181B6800936B4608E000BF53F82010F9
:10B21000D1F8205520C2C1F82055401C8442F5D8F1
:10B2200038BD0000E4EF02004FF0A0420121814050
:10B23000C2F80C15704742094FF0000100D1491EB9
:10B2400000F01F00012282400A4201D00120704715
:10B25000002070474FF0A04201218140C2F808153C
:10B2600070474FF0A04201218140C2F80815704795
:10B270004FF0A04201218140C2F808157047012219
:10B280004FF0A043824011B1C3F808257047C3F8BE
:10B290000C257047034908B5084400210160006887
:10B2A000009008BD0060004002494058012800D0CD
:10B2B000002070470060004030B5154A014600206C
:10B2C000D2F8104423460AE0DB681D79854205D197
:10B2D000401C0A28F6DB4FF0FF3030BD1B68002B06
:10B2E000F2D1431CF9D0CB681871D2F8103443B1B5
:10B2F000DB68CC681B682360D2F81024D268116028
:10B3000030BDC2F81014C96800220A6030BD0000C8
:10B31000D43D00207047FBF771BC704708B5034A65
:10B3200000924023024A00F005F808BD25D502002E
:10B330003C3C0020F0B595B01C4615460F4608462B
:10B340001A9E00F057FB182109A8FBF7A8F80E96E3
:10B35000CDE909540023082203A9384600F05FFB19
:10B3600005980690BDF81000ADF81C00BDF812005D
:10B37000ADF81E0000208DF821000398082600F08B
:10B380000300012802D0022818D032E00398334687
:10B39000850AC0F3C2008DF8200003980FA9C0F3FE
:10B3A0008314A200384600F03AFB09A8009006ABCF
:10B3B00022460FA9284600F079FA1AE00398840D76
:10B3C000C0F3C2008DF82000082C01D2254600E011
:10B3D000082533462A460FA9384600F020FB2E44A4
:10B3E000641B09AB06AA29460FA800F0C7F9002C78
:10B3F000EAD1384600F004FB15B0F0BD0A4A012935
:10B4000002EBC00007D0022907D0032907D0042986
:10B4100007D0002070470220704704207047007951
:10B420007047407970470000F0FA020010B5FFF74E
:10B4300072FF04210348FFF73FFF02490120C9685A
:10B44000487110BDE0FA02002DE9F04F8DB0FDF714
:10B450004DFE18B100200DB0BDE8F08F7E4C4FF0CE
:10B46000000BC4F818B4BFF34F8F7C49A06802905A
:10B470000D68D846284004EB80000BE0D4F818048F
:10B4800070B961680298814201D8A160E2E7284062
:10B4900004EB80000C3002A9FEF756FD0028EDD128
:10B4A000002005AA029901EA050304EB8303491C65
:10B4B000DB6842F82030401C02910228F2D3059844
:10B4C00000F00300022802D001284DD0AAE0059820
:10B4D0005022810D8946B2EB905F00D850210E4674
:10B4E00066F39F50059008315D4800F03AFA070076
:10B4F00078D000F07FFA4346082205A9384600F0CC
:10B5000096FA029908F1080A2940681A8000001D7D
:10B51000864222D9504D0C3530B1C2B204EB8101C4
:10B52000301A90460C3104E02946F2B200259046CC
:10B530002846C6B25346384600F079FA0AEB0803AB
:10B5400025B132462946384600F071FA029909F1D0
:10B55000030001EB900002903BE004EB81015346B5
:10B56000324638460C31EFE70598C0F383100628C1
:10B5700000D30620059960F38911C1F38310801C64
:10B5800005918100364800F0ECF907004AD000F040
:10B5900031FA4346082205A9384600F048FA08F176
:10B5A000080800260FE00298434600EA0501401C07
:10B5B00004EB81010290042238460C3100F037FA86
:10B5C00008F10408761C0598C0F38310B042EAD84D
:10B5D00047B1D4F81054D4F8180478B1384600F0C4
:10B5E0000FFA34E01EE0E8684079012804D12A68A7
:10B5F0002846394612689047E8680568002DF2D160
:10B60000384600F0FDF98DF800B06846FCF790FC74
:10B61000D4F8180408B90298A0609DF80000FCF75F
:10B62000ABFC14E0D4F8104405E02168204689689A
:10B630008847E0680468002CF7D10A480A49401A94
:10B64000C008022101EB004008A100F06DF8FDF7F1
:10B650004DFD80F00100FEE6D43D0020382C002096
:10B6600080FB020060FB0200F0FA02004261636BA3
:10B67000656E647320666C75736865640000000015
:10B680002DE9F84F8146264FD01C15468A46800882
:10B69000002269463E68FDF7C7FCDFF88880B0B33A
:10B6A000009CA01C009039683040091A8F003F1D93
:10B6B000BD4208EB800002D82A46514608E03A46CF
:10B6C00051460C30FAF7D2FE1648EA1B0AEB070186
:10B6D0000C30FAF7CBFE4FEA1947FEF759F947EA63
:10B6E0000042601C304008EB8000344008EB8401CD
:10B6F000C260C8684FF6C07269F3C500904365F335
:10B700009F5020F00300801C20F00400C86098F8CF
:10B71000000001E0FFF798FE0028FBD1BDE8F88F9C
:10B72000382C0020D43D002000231A4602F0AAB88D
:10B7300008B5012300926A4602F0A4F808BD1CB5C2
:10B74000CDE9002302236A4602F09CF81CBD3EB5F9
:10B75000069C8DE81C0003236A4602F093F83EBD68
:10B76000F0B587B00DF1300C9CE8F0008DE8FC00DE
:10B7700006236A4602F086F807B0F0BD2DE9F047CF
:10B780000E4680461C469246082940D894F80C90F4
:10B79000002020731946104601F0AEFC0025B5428A
:10B7A00006D218F805201BA12046FFF77DFB03E019
:10B7B0001AA12046FFF778FB6D1C082DEFD318A1C6
:10B7C0002046FFF771FB0025B54212D218F805702C
:10B7D0007E2F08D8FAF746FE0068C05D10F03E0FD5
:10B7E00001D03A4600E02E220EA12046FFF75CFB76
:10B7F00003E00DA12046FFF757FB6D1C082DE3D396
:10B8000001222146504601F059FC84F80C90BDE815
:10B81000F087000020253032780000002020200032
:10B820007C0000002563000020000000064910B5E0
:10B8300000200870054800F0E1F8002803D1044812
:10B8400000F036F9002010BDD43D002080FB02003E
:10B8500008F2020002480349401AC008704700007D
:10B8600080FB0200F0FA020013B56846FEF784FF81
:10B8700008B100201CBD0248009950F831001CBDE1
:10B88000F0FA020070B508480125D0F810440570A0
:10B8900007E0E06845712168204649688847E0680C
:10B8A0000468002CF5D170BDD43D00202DE9FF4780
:10B8B00081460C9D00200C462F7B28739846164627
:10B8C0002946184601F018FC072E42D2DFE806F0A0
:10B8D00004090F161F2A360049462846FFF7E4FAE6
:10B8E00037E0494628462268FFF7DEFA31E0D4E91E
:10B8F000002349462846FFF7D7FA2AE0A0680090BF
:10B90000D4E9002349462846FFF7CEFA21E0D4E9DE
:10B910000201CDE90001D4E9002349462846FFF79A
:10B92000C3FA16E004F1080007C88DE80700D4E95F
:10B93000002349462846FFF7B7FA0AE004F1080059
:10B940000FC88DE80F00D4E9002349462846FFF7C9
:10B95000ABFA00222946404601F0B0FB2F73BDE848
:10B96000FF872DE9F041058A80462D1F4819C01C2C
:10B97000B0FBF5F0C6B24046FEF7F0FF041E19D04A
:10B980000020207101206071E58000272546761E89
:10B99000C4F800800BE04046FEF7E0FF60B161793B
:10B9A000491C6171286005467F1CC0F80080B742C1
:10B9B000F1D32046BDE8F081204600F002F80020D7
:10B9C000F8E72DE9F041457901466B1E002201E0C0
:10B9D0000968521C9A42FBD30F680146002605E015
:10B9E00038460C68FEF7DCFF2146761CAE42F7D3E2
:10B9F000BDE8F0810121001DFEF78EBFFEF7E8BF14
:10BA000010B504460121001DFEF7A2FF10F0FF0F44
:10BA100004D12046BDE81040FFF7D3BF10BD1CB5D0
:10BA200001920122009201AAFEF766FE1CBD1CB520
:10BA300001920022009201AAFEF75EFE1CBD0000EA
:10BA4000064910B500204870091D0860BFF35F8FDC
:10BA50000349044800F01AFA002010BD242C0020ED
:10BA6000A0F00200303C002008B500208DF8000056
:10BA70006846FCF75DFAF1EE100A20F09F00E1EE57
:10BA8000100ABFF35F8F08494020C1F880029DF87B
:10BA90000000FCF771FA00F0D5F908B141DF08BDEC
:10BAA00020BF40BF20BF08BD04E000E0FCF792B813
:10BAB00082680021916082681161826851618268A8
:10BAC000D1608268516080680160704708B50022CB
:10BAD00042504058009008BD20B1034909680160F8
